:020000040800F2
:10000000B04B002021020008290200082B02000842
:100010002D0200082F020008310200080000000035
:10002000000000000000000000000000890100083E
:100030003502000800000000CD0100089508000806
:100040003B0200083B0200083B0200083B0200089C
:100050003B0200083B0200083B0200083B0200088C
:100060003B0200083B0200083B0200083B0200087C
:100070003B0200083B0200083B0200083B0200086C
:100080003B0200083B0200083B0200083B0200085C
:100090003B0200083B0200083B0200083B0200084C
:1000A0003B0200083B0200083B0200083B0200083C
:1000B0003B0200083B0200083B0200083B0200082C
:1000C0003B0200083B0200083B0200083B0200081C
:1000D0003B020008290900083B0200083B02000817
:1000E0003B0200083B0200083B02000800F002F857
:1000F00000F03AF80AA090E8000C82448344AAF188
:100100000107DA4501D100F02FF8AFF2090EBAE885
:100110000F0013F0010F18BFFB1A43F0010318473B
:100120003C1C00005C1C0000103A24BF78C878C159
:10013000FAD8520724BF30C830C144BF04680C60ED
:10014000704700000023002400250026103A28BF35
:1001500078C1FBD8520728BF30C148BF0B60704739
:100160001FB51FBD10B510BD00F0F4F81146FFF724
:10017000F7FF00F031FC00F012F903B4FFF7F2FFD3
:1001800003BC00F019F90000224B19680868B0E8B8
:10019000F00F80F30988BFF36F8F4FF0000080F3FA
:1001A00011884EF00D0E70470000000006480068F0
:1001B000006880F3088862B661B6BFF34F8FBFF363
:1001C0006F8F00DF00BF00BF08ED00E0EFF3098094
:1001D000BFF36F8F0F4B1A6820E9F00F106008B55E
:1001E0004FF0BF0080F31188BFF34F8FBFF36F8FC5
:1001F00001F0D8F94FF0000080F31188BDE8084005
:1002000019680868B0E8F00F80F30988BFF36F8FB2
:10021000704700BF3C000020EFF3058070470000EE
:100220000948804709480047FEE7FEE7FEE7FEE78A
:10023000FEE7FEE7FEE7FEE7FEE7FEE704480549C6
:10024000054A064B70470000C9080008ED00000889
:10025000B0450020B04B0020B0470020B047002040
:10026000032A40F2308010F0030C00F0158011F8E2
:10027000013BBCF1020F624498BF11F801CB00F8BA
:10028000013B38BF11F8013BA2F1040298BF00F80E
:1002900001CB38BF00F8013B11F0030300F02880C8
:1002A000083AC0F0088051F8043B083A51F804CBF2
:1002B000A0E80810F5E7121D5CBF51F8043B40F8B8
:1002C000043BAFF30080D20724BF11F8013B11F8C3
:1002D00001CB48BF11F8012B24BF00F8013B00F807
:1002E00001CB48BF00F8012B70477047704770473B
:1002F00010B5203AC0F00B80B1E81850203AA0E8C1
:100300001850B1E81850A0E81850BFF4F5AF5FEAF4
:10031000027C24BFB1E81850A0E8185044BF18C9A7
:1003200018C0BDE810405FEA827C24BF51F8043B4E
:1003300040F8043B08BF7047D20728BF31F8023BA2
:1003400048BF11F8012B28BF20F8023B48BF00F836
:10035000012B7047754600F02BF8AE460500694644
:10036000534620F00700854618B020B5FFF766FF1A
:10037000BDE820404FF000064FF000074FF00008A6
:100380004FF0000B21F00701AC46ACE8C009ACE827
:10039000C009ACE8C009ACE8C0098D46704710B58B
:1003A0000446AFF300802046BDE81040FFF7E5BEED
:1003B000004870474C45002001491820ABBEFEE7BD
:1003C000260002007047000030B5344B03EBC00339
:1003D0009B88082B20DA314B53F830301B682F4CA8
:1003E00004EBC0042479A5000F24AC40A3432B4C9C
:1003F00054F830402360294B53F830301B68274CA9
:1004000004EBC0042479A40001FA04F42343234C30
:1004100054F83040236021E0204B53F830305B68C3
:100420001E4C04EBC0042479083CA5000F24AC400A
:10043000A3431A4C54F830406360184B53F83030E3
:100440005B68164C04EBC0042479083CA40001FA54
:1004500004F42343114C54F8304063600F4B53F8BD
:100460003030DB680D4C04EBC00425790124AC402E
:10047000A3430A4C54F83040E360084B53F8303043
:10048000DB68064C04EBC004247902FA04F423432D
:10049000024C54F83040E36030BD0000FC1C000802
:1004A00010B500240D48806940F004000B498861B4
:1004B0000846806940F00800886100BF0BE0084BE7
:1004C00003EBC403DA79064B03EBC4039979E0B27A
:1004D000FFF77AFF641C0C2CF1DB10BD001002400A
:1004E000FC1C000851B10B4A02EBC0021379012237
:1004F0009A40084B53F830301A6109E0054A02EB84
:10050000C002137901229A40024B53F830305A61ED
:1005100070470000FC1C000800F01F020121914000
:100520004209920002F1E022C2F800117047000077
:100530001CB50024002503220021012001F07CF8D5
:100540005B490860B2E000235A1E1946584800680B
:1005500001F08EF80028F5D056480078F8287DD1B3
:1005600054484078012803D100208DF8000006E0AF
:1005700050484078022802D101208DF800004D48F3
:100580008078522803D100208DF8010006E0494808
:1005900080784C2802D101208DF801004548C078B0
:1005A000462803D100208DF805001EE04148C078A0
:1005B000482803D101208DF8050016E03D48C07899
:1005C000512803D102208DF805000EE03948C0788B
:1005D000452803D103208DF8050006E03548C07892
:1005E000532802D104208DF8050032484079314962
:1005F000097940EA0120ADF802002E48C0792D4962
:10060000897940EA0120C0B28DF804002948007AB7
:10061000E0281FD19DF8000070B900235A1E6946DA
:100620002548006801F002F90446012C12D023A1EC
:100630002A4800F0A1FE0DE000235A1E6946284812
:10064000006801F0F3F80546012D03D01BA12348F3
:1006500000F092FE0020234908700AE011E000201B
:100660001449204A127888541E480078401C1D49BD
:1006700008701C4800780828F1DB00201A4908702F
:1006800014E000201749087009E000200949154AC4
:100690001278885413480078401C12490870114899
:1006A00000780828F1DB00200F4908704BE70000B4
:1006B000180000207800002000000020436F756CB7
:1006C00064206E6F742073656E6420746F2074688C
:1006D000652071756575652E0D0A000000380140B2
:1006E000040000201D0000201C00002010B500F0B8
:1006F00001F810BD0CB5002001900090334800684F
:1007000040F480303149086000BF3048006800F490
:10071000003000900198401C0190009818B9019891
:10072000B0F5A06FF1D12948006800F4003010B195
:100730000120009001E0002000900098012843D1A2
:100740002348006840F0100021490860084600680E
:1007500020F0030008600846006840F002000860CE
:100760001A48406819494860084640684860084689
:10077000406840F4806048600846406820F47C107F
:1007800048600846406840F4E81048600846006841
:1007900040F08070086000BF0C48006800F00070F6
:1007A0000028F9D00948406820F003000749486054
:1007B0000846406840F00200486000BF03484068B7
:1007C00000F00C000828F9D10CBD00000010024018
:1007D000002002401CB50020012103468022CDE903
:1007E000001020A1214801F017F9012801D000BF15
:1007F00000BF00220621022000F01EFF1C490860F5
:1008000003220021012000F017FF1A49086003228B
:100810000021012000F010FF17490860002001218D
:1008200003468022CDE9001014A1164801F0F4F827
:10083000012801D000BF00BF00220621022000F0E5
:10084000FBFE1149086003220021012000F0F4FEA4
:100850000E49086003220021012000F0EDFE0C4942
:1008600008601CBD4D6F746F723100000D120008DE
:100870000000002008000020100000204D6F746F61
:10088000723200005D120008040000200C000020FD
:100890001400002010B500BFBF2080F31188BFF303
:1008A0004F8FBFF36F8F00BF01F0E6F818B14FF024
:1008B00080500449086000BF002080F3118800BF09
:1008C00010BD000004ED00E010B51348006840F0D2
:1008D00001001149086008464068104908400E4967
:1008E0004860084600680E4908400B490860084601
:1008F000006820F4802008600846406820F4FE006C
:1009000048604FF41F008860FFF7F0FE4FF0006072
:100910000449086010BD0000001002400000FFF80C
:10092000FFFFF6FE08ED00E010B500201949086051
:100930001948008800F0200050B31748008820F0C4
:10094000200015490880091D0988CAB21349087892
:10095000411C124B197012490A5418460078092894
:1009600016D10020194608700A490E48006800F0A8
:10097000E9FF0848006801280AD10648006838B134
:100980004FF0805008490860BFF34F8FBFF36F8F5F
:1009900010BD000020000020003801401C00002095
:1009A000780000201800002004ED00E0084880696D
:1009B00040F01000064988610648406820F4400075
:1009C000044948600846406840F480104860704719
:1009D00000100240001001401CB500F0C9FA00F000
:1009E00065FCFFF7E3FFFFF75BFDFFF7F3FE002079
:1009F000012103468022CDE900100DA10E4801F02F
:100A00000BF8012801D000BF00BF002001210346E0
:100A10008022CDE9001009A10B4800F0FDFF01285C
:100A200001D000BF00BF00F083FD00201CBD00000E
:100A3000426C696E6B657200C113000853656E6489
:100A400065725F3100000000310500082DE9F041BA
:100A500005460E461C4807681C480068001D00F04B
:100A60009BFC50B91948006890F82C100120884070
:100A700017490968814316480160681C38B936B1C6
:100A800012480168091D134800F0DCFC1AE07C19CB
:100A90000E4800684460BC4207D20C480168091D3A
:100AA0000D48006800F0B4FC0CE008480168091D1E
:100AB0000A48006800F0ACFC09480068844201D292
:100AC00007480460BDE8F081500000203C00002091
:100AD0005400002038450020440000204000002041
:100AE0006C00002010B5044600F0B8FC23480068F4
:100AF000401C224908602248006840B92048046030
:100B00000846006801280DD100F034F90AE01D48BC
:100B1000006838B91A480068C06AE16A884201D89A
:100B20001748046018480068401C1749086094F88A
:100B30002C100120884015490968084313490860B2
:100B4000E16A01EB8101124A02EB8100211D00F0F4
:100B500079FC00F095FC0B48006868B10848006813
:100B6000C06AE16A884207D24FF0805009490860A4
:100B7000BFF34F8FBFF36F8F10BD00004C000020FC
:100B80003C00002058000020680000205400002095
:100B90008444002004ED00E070B523E000F0FAFC8E
:100BA0001348006808B9012000E00020054601F064
:100BB00031F8BDB900F052FC0D48C068C468201D72
:100BC00000F0EAFB0B480068401E0A4908600A482A
:100BD0000068401E0849086000F052FC204600F002
:100BE00057F800BF044800680028D7D170BD000046
:100BF000244500204C0000204800002070B5044629
:100C00000D46206C70B1216CE0680844E0606168BA
:100C1000E068884201D32068E0602846226CE168E1
:100C2000FFF71EFB70BD2DE9F04104460F46154647
:100C30004FF00008A66B206C28B37DB93946226CB2
:100C4000A068FFF70DFB216CA0680844A060D4E900
:100C50000110884217D32068A06014E03946226C46
:100C6000E068FFF7FDFA216CE068401AE060216857
:100C7000E068884203D2216C6068401AE060022D6F
:100C800001D106B1761E701CA0634046BDE8F0811C
:100C900010B50446206B00F003FC204600F000FC79
:100CA00010BD000000BFFFF777FF0648006801286D
:100CB000F9D94FF0805004490860BFF34F8FBFF35C
:100CC0006F8FF0E78444002004ED00E02DE9F0414F
:100CD00006460D4617469846069C0DB9246000E06E
:100CE0002760E66325640121204600F05FFDBDE832
:100CF000F0812DE9FF5F80460E469146DDE90E7AD0
:100D0000109CA9F10100216B01EB800B2BF0070B6C
:100D1000002507E0715D04F134004155705D00B9B4
:100D200002E06D1C102DF5D300BF002143200155BA
:100D3000052F00D30427E762201D00F066FB04F1B5
:100D4000180000F062FB2461C7F10500A061646235
:100D50000020606484F8480041465846039A00F039
:100D6000F5F82060BAF1000F01D0CAF80040BDE8E4
:100D7000FF9F000010B5002407E004EB84010F4A38
:100D800002EB810000F034FB641C052CF5D30C4809
:100D900000F02EFB0B4800F02BFB0B4800F028FB6B
:100DA0000A4800F025FB0A4800F022FB04480949E4
:100DB000086004480849086010BD00008444002011
:100DC000E8440020FC440020104500202445002079
:100DD00038450020400000204400002070B5054642
:100DE00000F03CFBA86B08B9012400E0002400F0EF
:100DF00047FB204670BD70B5054600F02FFBA86B81
:100E0000E96B884201D1012400E0002400F038FBA6
:100E1000204670BD0A490968096809B9012100E046
:100E2000002121B14FF0FF31064A116006E004496C
:100E30000968C968C868034A4168116070470000C2
:100E4000400000206C00002000BFBF2080F311880C
:100E5000BFF34F8FBFF36F8F00BF00BFFEE770B5CA
:100E6000044600F0FBFA94F9455010E0606A08B9B6
:100E7000012000E0002038B904F1240000F08AFECF
:100E800018B100F033FB00E003E0681E45B2002D0E
:100E9000ECDC00BFFF2084F8450000F0F1FA00F020
:100EA000DDFA94F9445010E0206908B9012000E00F
:100EB000002048B904F1100000F06CFE08B100F009
:100EC00015FB681E45B200E001E0002DECDC00BF20
:100ED000FF2084F8440000F0D3FA70BD70B50446DA
:100EE000002504F0070020B104F00700C0F108005D
:100EF000044400F04FFB1248006820B9114820F06C
:100F000007000F49086010480068204444F2F83197
:100F1000884210D20C48006820440B490968884276
:100F200009D9074800680849096845180648006853
:100F300020440549086000F06DFE284670BD0000A1
:100F4000340000208900002030000020001F4FF0F6
:100F500080730360001F21F001030360001F034B37
:100F6000036014380260203870470000490E000802
:100F70002C48006840F480302A49086000BF2948A6
:100F8000006800F400300028F9D0132026490860DA
:100F900024484068234948600846406840F4A060FF
:100FA00048600846406840F4205048600846406861
:100FB00020F4701048600846406820F48030486093
:100FC0000846406820F4003048600846406840F415
:100FD000803048600846406848600846406840F4F1
:100FE000E01048600846006840F08070086000BF6C
:100FF0000C48006800F000700028F9D009484068EB
:1010000020F00300074948600846406840F00200AD
:10101000486000BF0348406800F00C000828F9D180
:1010200070470000001002400020024070B50446E6
:101030000D46052D74D2DFE805F0031F3B57740001
:1010400004EB4401464A02EB4101C8780021FFF756
:1010500049FA04EB4401424A02EB410108790021BC
:10106000FFF740FA04EB44013D4A02EB41014879A5
:101070000021FFF737FA71E004EB4401384A02EB34
:101080004101C8780121FFF72DFA04EB4401344AED
:1010900002EB410108790021FFF724FA04EB440137
:1010A0002F4A02EB410148790021FFF71BFA55E076
:1010B00004EB44012A4A02EB4101C8780021FFF702
:1010C00011FA04EB4401264A02EB4101087901219F
:1010D000FFF708FA04EB4401214A02EB4101487989
:1010E0000021FFF7FFF939E004EB44011C4A02EB51
:1010F0004101C8780121FFF7F5F904EB4401184AD2
:1011000002EB410108790121FFF7ECF904EB4401FE
:10111000134A02EB410148790021FFF7E3F91DE092
:101120001BE004EB44010E4A02EB4101C8780121A7
:10113000FFF7D8F904EB4401094A02EB41010879B1
:101140000121FFF7CFF904EB4401054A02EB41010D
:1011500048790121FFF7C6F900E000BF00BF70BD6C
:10116000240000202DE9F0470446884615461E4617
:10117000DDE908A904EB44010C4A02EB410188783F
:101180000021FFF7AFF949462046FFF74FFF002740
:1011900007E04146204600F00BF8304600F08CF99D
:1011A0007F1CAF42F5D3BDE8F0870000240000208B
:1011B00070B504460D460DB1012200E00022114633
:1011C00004EB44020F4B13F81200FFF78BF904EB0A
:1011D00044010C4A02EB410148780021FFF782F9F3
:1011E0004FF0805008490860BFF34F8FBFF36F8FF7
:1011F00004EB4401034A02EB410148780121FFF767
:1012000071F970BD2400002004ED00E01FB51EE060
:1012100000235A1E02A90E48006800F029FAB0B156
:101220009DF80D000B490968CDE900109DF80C30C0
:10123000BDF80A209DF809109DF80800FFF792FFFD
:1012400000231A4619460448006800F0EFFADFE769
:101250000000002008000020100000201FB51EE044
:1012600000235A1E02A90E48006800F001FAB0B12E
:101270009DF80D000B490968CDE900109DF80C3070
:10128000BDF80A209DF809109DF80800FFF76AFFD5
:1012900000231A4619460448006800F0C7FADFE741
:1012A000040000200C0000201400002010B52B4882
:1012B000806940F48040294988610846806940F08F
:1012C000040088610846806940F001008861244874
:1012D000006820F0C000224908600846006840F01D
:1012E000800008600846006840F01000086008466A
:1012F000006820F4406008600846006840F48060A0
:1013000008600846006820F4807008609C20154939
:101310000880081D008840F40050091D0880084618
:10132000008840F0080008800846008840F004006B
:1013300008800846008840F02000088008460088A1
:1013400020F480500880081D008820F44050091DBA
:1013500008802520FFF7E0F810BD000000100240D3
:10136000040801400838014000BF028802F08002F2
:10137000002AFAD08180704730B505460B4600241C
:1013800006E02046621CD4B2195C2846FFF7ECFF49
:10139000185D0028F5D130BD01460A69D1E9013058
:1013A0009860D1E9010358605068884201D188688B
:1013B0005060002008611068401E1060106870477F
:1013C00013E00A48006940F40050084908614FF4EE
:1013D000FA7000F071F80548006940F000500349C8
:1013E00008614FF4FA7000F067F8EAE70010014076
:1013F00000F1080141604FF0FF31816000F1080108
:10140000C1600161002101607047002101617047E6
:1014100010B502460B685C1C0CB9106907E002F1BC
:10142000080000E04068446824689C42FAD9446897
:101430004C604C68A160886041600A611468641C5B
:10144000146010BD42684A6093688B60936859606D
:101450009160086103685B1C0360704700BFBF2098
:1014600080F31188BFF34F8FBFF36F8F00BF034826
:101470000068401C014908607047000038000020E7
:1014800006480068401E054908600846006820B903
:10149000002080F3118800BF00BF70473800002093
:1014A0007047000003484FF0E021486107200861C1
:1014B000704700003F19010070B50446002544B193
:1014C00000F068F800212046FFF7C0FA00F0A2FB08
:1014D00005463DB94FF0805003490860BFF34F8F78
:1014E000BFF36F8F70BD000004ED00E001200149E3
:1014F000086070476000002070B505460C4605483E
:10150000016818312846FFF783FF01212046FFF7C5
:101510009DFA70BD3C000020034909680160034941
:1015200009684160704700006400002050000020FE
:101530001CB5114800210B468022CDE900100FA1F7
:10154000104800F069FA0446012C14D100BFBF20F6
:1015500080F31188BFF34F8FBFF36F8F00BF4FF041
:10156000FF30094908600120084908600020084947
:10157000086000F047F81CBD7000002049444C454D
:1015800000000000A50C00086C000020580000209E
:101590005000002002480068401C01490860704764
:1015A000740000201248006818B101201149086039
:1015B0001DE000200F4908600F480068B0FA80F075
:1015C000C0F11F0101EB81020C4B03EB820042686A
:1015D0005268426000F108024368934202D14268B7
:1015E000526842604268D268054B1A6000BF70477B
:1015F000740000206000002054000020844400207B
:101600003C00002010B50A48006840F47F000849FB
:1016100008600846006840F07F400860FFF742FF1E
:10162000002004490860FEF7C1FD002010BD000045
:1016300020ED00E0380000202DE9F84307460D4674
:1016400090460DB9002601E007FB05F606F14800BB
:10165000FFF744FC044644B104F1480943464A46B6
:10166000294638460094FFF731FB2046BDE8F88351
:101670002DE9FF4782B0054689461E464FF0000A15
:101680002C4600BFFFF7EAFED4F83880B8F1000F0F
:1016900036D0E76849462046FFF7B0FAB6B9A8F158
:1016A0000100A063206908B9012000E0002008BB08
:1016B00004F1100000F06EFAE0B14FF080503A49AA
:1016C0000860BFF34F8FBFF36F8F13E0E760606A6E
:1016D00008B9012000E0002060B904F1240000F006
:1016E00059FA38B14FF080502F490860BFF34F8F3F
:1016F000BFF36F8FFFF7C4FE012006B0BDE8F0878F
:10170000049818B9FFF7BCFE0020F6E7BAF1000F05
:1017100004D16846FFF700FF4FF0010AFFF7B0FE63
:10172000FFF738FFFFF79AFE94F94400401C10B908
:10173000002084F8440094F94500401C10B90020B2
:1017400084F84500FFF79CFE04A9684600F036F9CE
:10175000F0B92046FFF742FBA0B104F12400049940
:10176000FFF7CAFE2046FFF77AFB00F053FA002885
:1017700088D14FF080500C490860BFF34F8FBFF302
:101780006F8F7FE72046FFF76AFB00F043FA79E7A7
:101790002046FFF764FB00F03DFA2046FFF71EFBF2
:1017A0000028EED00020A8E704ED00E070B5054663
:1017B0000E462C46FFF752FED4E90F12206801FBBB
:1017C000020060600020A0632068A060E06B401E03
:1017D000226C216800FB0210E060FF2084F84400C6
:1017E00084F845009EB9206908B9012000E0002076
:1017F000A8B904F1100000F0CDF980B14FF080508D
:1018000009490860BFF34F8FBFF36F8F07E004F102
:101810001000FFF7EDFD04F12400FFF7E9FDFFF7ED
:101820002FFE012070BD000004ED00E02DE9FF4314
:1018300083B0074688461D464FF000093C4600BF6E
:10184000FFF70CFEA06BE16B884201D3022D28D17B
:101850002A4641462046FFF7E6F90646606A08B97F
:10186000012000E0002068B904F1240000F092F9A2
:1018700088B14FF0805032490860BFF34F8FBFF3FB
:101880006F8F08E03EB14FF080502D490860BFF3E4
:101890004F8FBFF36F8FFFF7F3FD012007B0BDE857
:1018A000F083059818B9FFF7EBFD0020F6E7B9F1D2
:1018B000000F04D101A8FFF72FFE4FF00109FFF739
:1018C000DFFDFFF767FEFFF7C9FD94F94400401CF8
:1018D00010B9002084F8440094F94500401C10B968
:1018E000002084F84500FFF7CBFD05A901A800F012
:1018F00065F8F0B92046FFF77EFAA0B104F11000B8
:101900000599FFF7F9FD2046FFF7A9FA00F082F9E3
:10191000002895D14FF0805009490860BFF34F8FE0
:10192000BFF36F8F8CE72046FFF799FA00F072F94A
:1019300086E72046FFF793FA00F06CF90020ADE748
:1019400004ED00E02DE9F04705460E462C4600BFA9
:10195000BF21EFF3118081F31188BFF34F8FBFF3E5
:101960006F8F00BF8046D4F83890E06B48451DD992
:1019700094F945A009F10100A0630AF1010070B9D2
:10198000606A08B9012000E0002068B904F1240071
:1019900000F000F940B13EB10120306004E00AF1EE
:1019A000010040B284F84500012700E0002700BF95
:1019B00088F3118800BF3846BDE8F08770B504464B
:1019C0000D46FFF74BFD124802682868401C08B915
:1019D000002619E00F4920680968884204D0606831
:1019E000904201D801260FE06068101A29688842E9
:1019F00009D228686168511A401A28602046FFF70A
:101A00008BFD002600E00126FFF73AFD304670BD51
:101A100050000020640000202DE9FF4F85B0804673
:101A200089461746DDE912ABB800FFF757FA0646BC
:101A300056B14C20FFF752FA04460CB1266304E07D
:101A40003046FFF72DFD00E000247CB10020CDE9F9
:101A500000ABCDE902403A4649464046089BFFF7B5
:101A600048F92046FFF73EF8012501E04FF0FF3529
:101A7000284609B0BDE8F08F2DE9F04100273A482B
:101A80000068002863D139480068451C3748056064
:101A90008DB93748D0F8008036480068344908606E
:101AA0003448C0F8008034480068401C324908605F
:101AB000FFF7B0F900BF3148006885423BD300BF53
:101AC0002B480068006808B9012000E0002020B120
:101AD0004FF0FF30294908602CE025480068C068B5
:101AE000C4686668B54202D22448066022E0201D20
:101AF000FFF752FCA06A18B104F11800FFF74CFC84
:101B000094F82C10012088401D49096808431C499D
:101B10000860E16A01EB81011A4A02EB8100211D94
:101B2000FFF790FC1849E06A0968C96A8842C7D380
:101B30000127C5E700BF14480068C06A00EB8000B9
:101B4000104951F82000012800D9012704E00F486E
:101B50000068401C0D4908600D48006800B101276D
:101B60003846BDE8F08100007400002050000020DD
:101B70004000002044000020640000206C00002091
:101B800054000020844400203C0000205C00002021
:101B90006000002070B50646F068C46804F11800C3
:101BA000FFF7FAFB15480068A8B9201DFFF7F4FB02
:101BB00094F82C1001208840114909680843104905
:101BC0000860E16A01EB81010E4A02EB8100211DF0
:101BD000FFF738FC04E004F118010B48FFF732FC72
:101BE0000A49E06A0968C96A884204D901250120C6
:101BF0000749086000E00025284670BD74000020F9
:101C00005400002084440020104500203C000020A7
:101C10006000002070B500240026FFF71FFC2E484E
:101C20000068401E2C4908600846006800284FD113
:101C30002A48006800284BD024E02948C068C468BE
:101C400004F11800FFF7A8FB201DFFF7A5FB94F88F
:101C50002C10012088402349096808432149086065
:101C6000E16A01EB8101204A02EB8100211DFFF7AF
:101C7000E9FB1E49E06A0968C96A884202D301206B
:101C80001B4908601648006808B9012000E00020E0
:101C90000028D2D00CB1FFF7BDF81648056865B131
:101CA00000BFFFF7E9FE10B10120114908606D1E69
:101CB000002DF6D100200F4908600D48006838B1AA
:101CC000012630070C490860BFF34F8FBFF36F8FB9
:101CD000FFF7D6FB304670BD740000204C0000209A
:101CE0001045002054000020844400203C000020C7
:101CF000600000205C00002004ED00E0000C0140CA
:101D00000C000101000C01400E000101000C01401B
:101D10000D000101000C014001000101000C014017
:101D20000A000101000C01400B0001010008014004
:101D3000010001010008014002000101000801400A
:101D400000000101000801400300010100080140FA
:101D50000400010100080140050001017C1D00088C
:101D6000000000207800000028010008F41D000891
:101D700078000020384B00004401000800000000FB
:101D80000000000000000000000000000000000053
:101D90000000000000000000000000000000000043
:101DA000000201030405060807090A0B00000000F1
:101DB00000000000AAAAAAAA00000000000000007B
:101DC0000000000000000000000000000000000013
:101DD0000000000000000000000000000000000003
:101DE00000000000000000000000000000000000F3
:041DF00000000000EF
:0400000508000221CC
:00000001FF
