:020000040800F2
:10000000004C002021020008290200082B020008F1
:100010002D0200082F020008310200080000000035
:10002000000000000000000000000000890100083E
:100030003502000800000000CD010008BD070008DF
:100040003B0200083B0200083B0200083B0200089C
:100050003B0200083B0200083B0200083B0200088C
:100060003B0200083B0200083B0200083B0200087C
:100070003B0200083B0200083B0200083B0200086C
:100080003B0200083B0200083B0200083B0200085C
:100090003B0200083B0200083B0200083B0200084C
:1000A0003B0200083B0200083B0200083B0200083C
:1000B00051080008790800083B0200083B020008CC
:1000C0003B0200083B0200083B0200083B0200081C
:1000D0003B020008F50800083B0200083B0200084C
:1000E0003B0200083B0200083B02000800F002F857
:1000F00000F03AF80AA090E8000C82448344AAF188
:100100000107DA4501D100F02FF8AFF2090EBAE885
:100110000F0013F0010F18BFFB1A43F0010318473B
:10012000F42A0000142B0000103A24BF78C878C1CC
:10013000FAD8520724BF30C830C144BF04680C60ED
:10014000704700000023002400250026103A28BF35
:1001500078C1FBD8520728BF30C148BF0B60704739
:100160001FB51FBD10B510BD00F0F4F81146FFF724
:10017000F7FF00F017FC00F012F903B4FFF7F2FFED
:1001800003BC00F019F90000224B19680868B0E8B8
:10019000F00F80F30988BFF36F8F4FF0000080F3FA
:1001A00011884EF00D0E70470000000006480068F0
:1001B000006880F3088862B661B6BFF34F8FBFF363
:1001C0006F8F00DF00BF00BF08ED00E0EFF3098094
:1001D000BFF36F8F0F4B1A6820E9F00F106008B55E
:1001E0004FF0BF0080F31188BFF34F8FBFF36F8FC5
:1001F00001F036FE4FF0000080F31188BDE80840A2
:1002000019680868B0E8F00F80F30988BFF36F8FB2
:10021000704700BF8C000020EFF30580704700009E
:100220000948804709480047FEE7FEE7FEE7FEE78A
:10023000FEE7FEE7FEE7FEE7FEE7FEE704480549C6
:10024000054A064B70470000F1070008ED00000862
:1002500000460020004C00200048002000480020FC
:10026000032A40F2308010F0030C00F0158011F8E2
:10027000013BBCF1020F624498BF11F801CB00F8BA
:10028000013B38BF11F8013BA2F1040298BF00F80E
:1002900001CB38BF00F8013B11F0030300F02880C8
:1002A000083AC0F0088051F8043B083A51F804CBF2
:1002B000A0E80810F5E7121D5CBF51F8043B40F8B8
:1002C000043BAFF30080D20724BF11F8013B11F8C3
:1002D00001CB48BF11F8012B24BF00F8013B00F807
:1002E00001CB48BF00F8012B70477047704770473B
:1002F00010B5203AC0F00B80B1E81850203AA0E8C1
:100300001850B1E81850A0E81850BFF4F5AF5FEAF4
:10031000027C24BFB1E81850A0E8185044BF18C9A7
:1003200018C0BDE810405FEA827C24BF51F8043B4E
:1003300040F8043B08BF7047D20728BF31F8023BA2
:1003400048BF11F8012B28BF20F8023B48BF00F836
:10035000012B7047754600F02BF8AE460500694644
:10036000534620F00700854618B020B5FFF766FF1A
:10037000BDE820404FF000064FF000074FF00008A6
:100380004FF0000B21F00701AC46ACE8C009ACE827
:10039000C009ACE8C009ACE8C0098D46704710B58B
:1003A0000446AFF300802046BDE81040FFF7E5BEED
:1003B000004870479C45002001491820ABBEFEE76D
:1003C000260002007047000030B5344B03EBC00339
:1003D0009B88082B20DA314B53F830301B682F4CA8
:1003E00004EBC0042479A5000F24AC40A3432B4C9C
:1003F00054F830402360294B53F830301B68274CA9
:1004000004EBC0042479A40001FA04F42343234C30
:1004100054F83040236021E0204B53F830305B68C3
:100420001E4C04EBC0042479083CA5000F24AC400A
:10043000A3431A4C54F830406360184B53F83030E3
:100440005B68164C04EBC0042479083CA40001FA54
:1004500004F42343114C54F8304063600F4B53F8BD
:100460003030DB680D4C04EBC00425790124AC402E
:10047000A3430A4C54F83040E360084B53F8303043
:10048000DB68064C04EBC004247902FA04F423432D
:10049000024C54F83040E36030BD0000A42B00084B
:1004A00010B500240D48806940F004000B498861B4
:1004B0000846806940F00800886100BF0BE0084BE7
:1004C00003EBC403DA79064B03EBC4039979E0B27A
:1004D000FFF77AFF641C0E2CF1DB10BD0010024008
:1004E000A42B000851B10B4A02EBC0021379012280
:1004F0009A40084B53F830301A6109E0054A02EB84
:10050000C002137901229A40024B53F830305A61ED
:1005100070470000A42B000800F01F020121914049
:100520004209920002F1E022C2F80011704700F087
:100530001F02012191404209920002F1E022C2F81B
:100540000011704710B5002807DA0A07140E054A93
:1005500000F00F031B1FD45403E00A07130E024AD6
:10056000135410BD18ED00E000E400E010B500F0F9
:1005700001F810BD0CB500200190009033480068D0
:1005800040F480303149086000BF3048006800F412
:10059000003000900198401C0190009818B9019813
:1005A000B0F5A06FF1D12948006800F4003010B117
:1005B0000120009001E0002000900098012843D124
:1005C0002348006840F01000214908600846006890
:1005D00020F0030008600846006840F00200086050
:1005E0001A4840681949486008464068486008460B
:1005F000406840F4806048600846406820F47C1001
:1006000048600846406840F4E810486008460068C2
:1006100040F08070086000BF0C48006800F0007077
:100620000028F9D00948406820F0030007494860D5
:100630000846406840F00200486000BF0348406838
:1006400000F00C000828F9D10CBD00000010024099
:10065000002002401CB5414800680121002380228F
:10066000CDE900103EA1404801F09CFE012801D0D8
:1006700000BF00BF00220621022001F0A3FC3B497D
:10068000086003220021012001F09CFC3849086029
:1006900003220021012001F095FC36490860002268
:1006A0000121084601F08EFC334908603348006898
:1006B000012100238022CDE9001031A1324801F050
:1006C00071FE012801D000BF00BF002206210220D8
:1006D00001F078FC2D49086003220021012001F07F
:1006E00071FC2B49086003220021012001F06AFC03
:1006F0002849086000220121084601F063FC2649D0
:10070000086026480068012100238022CDE90010FE
:1007100023A1254801F046FE012801D000BF00BFFB
:1007200000220621022001F04DFC2049086003222E
:100730000021012001F046FC1D4908600322002130
:10074000012001F03FFC1B490860002201210846FE
:1007500001F038FC184908601CBD0000640000204E
:100760004D6F746F72310000F1140008000000201A
:1007700018000020240000200C0000206800002049
:100780004D6F746F723200004115000804000020A4
:100790001C00002028000020100000206C00002019
:1007A0004D6F746F7233000091150008080000202F
:1007B000200000202C0000201400002010B500BFF5
:1007C000BF2080F31188BFF34F8FBFF36F8F00BF3F
:1007D00001F01EFE18B14FF080500449086000BFC0
:1007E000002080F3118800BF10BD000004ED00E080
:1007F00010B51348006840F0010011490860084630
:100800004068104908400E494860084600680E4993
:1008100008400B4908600846006820F48020086002
:100820000846406820F4FE0048604FF41F008860CE
:10083000FFF79CFE4FF000600449086010BD000007
:10084000001002400000FFF8FFFFF6FE08ED00E098
:100850000020084908604FF08040008A00F0010045
:1008600038B14FF08040008A20F001004FF0804105
:10087000088270475400002010B51948008800F025
:10088000010058B31648008820F001001449088080
:1008900000231A4619461348006801F0AFFB20B147
:1008A0002721114800F04AFF18E000231A46194694
:1008B0000E48006801F0A2FB20B128210A4800F090
:1008C0003DFF0BE000231A4619460948006801F075
:1008D00095FB18B12921044800F030FF10BD00003D
:1008E00010040040240000200038014028000020AF
:1008F0002C00002010B50020194908601948008814
:1009000000F0200050B31748008820F0200015495F
:100910000880091D0988CAB213490878411C124B86
:10092000197012490A5418460078092816D1002077
:10093000194608700A490E48006801F0C9FC0848C9
:10094000006801280AD10648006838B14FF080508D
:1009500008490860BFF34F8FBFF36F8F10BD0000D1
:10096000500000200038014044000020C800002052
:100970003000002004ED00E00848806940F01000DD
:10098000064988610648406820F4400004494860F0
:100990000846406840F480104860704700100240EC
:1009A000001001401CB500F029FB00F069FEFFF7C4
:1009B000E3FF00F00FFCFFF773FDFFF74BFE00F0C5
:1009C0000FFE00F02FFE1E48012100238022CDE9FA
:1009D00000101CA11E4801F0E5FC012801D000BF59
:1009E00000BF1C48012100238022CDE900101AA17C
:1009F0001E4801F0D7FC012801D000BF00BF1C48F1
:100A0000012100238022CDE900101AA11B4801F02A
:100A1000C9FC012801D000BF00BF194801210023F3
:100A20008022CDE9001017A1184801F0BBFC012875
:100A300001D000BF00BF01F07BF900201CBD000009
:100A400034000020426F6F744C6F61646572000067
:100A50007918000840000020426C696E6B65724294
:100A60006F6F744C6F616465720000004D18000870
:100A700038000020426C696E6B6572001D1800081A
:100A80003C00002053656E6465720000211A000866
:100A90002DE9F04105460E461C4807681C480068D1
:100AA000001D00F063FE50B91948006890F82C1042
:100AB0000120884017490968814316480160681C75
:100AC00038B936B112480168091D134800F06EFFAD
:100AD0001AE07C190E4800684460BC4207D20C48FA
:100AE0000168091D0D48006800F046FF0CE0084849
:100AF0000168091D0A48006800F03EFF09480068C7
:100B0000844201D207480460BDE8F081A0000020C3
:100B10008C000020A40000208845002094000020C4
:100B200090000020BC00002010B5044600F04AFFF1
:100B300023480068401C224908602248006840B9E8
:100B4000204804600846006801280DD100F036F9FD
:100B50000AE01D48006838B91A480068C06AE16AAE
:100B6000884201D81748046018480068401C17499B
:100B7000086094F82C100120884015490968084342
:100B800013490860E16A01EB8101124A02EB81001E
:100B9000211D00F00BFF00F027FF0B48006868B133
:100BA00008480068C06AE16A884207D24FF0805066
:100BB00009490860BFF34F8FBFF36F8F10BD00006E
:100BC0009C0000208C000020A8000020B80000201D
:100BD000A4000020D444002004ED00E070B523E020
:100BE00001F036F91348006808B9012000E0002040
:100BF000054601F0DBFCBDB900F0E4FE0D48C0681D
:100C0000C468201D00F0B2FD0B480068401E0A4970
:100C100008600A480068401E0849086000F0E4FEC9
:100C2000204600F057F800BF044800680028D7D1DC
:100C300070BD0000744500209C000020980000203A
:100C400070B504460D46206C70B1216CE068084414
:100C5000E0606168E068884201D32068E06028466F
:100C6000226CE168FFF7FCFA70BD2DE9F041044603
:100C70000F4615464FF00008A66B206C28B37DB9CF
:100C80003946226CA068FFF7EBFA216CA068084493
:100C9000A060D4E90110884217D32068A06014E056
:100CA0003946226CE068FFF7DBFA216CE068401AF5
:100CB000E0602168E068884203D2216C6068401AD5
:100CC000E060022D01D106B1761E701CA063404683
:100CD000BDE8F08110B50446206B00F095FE20467B
:100CE00000F092FE10BD000000BFFFF777FF07483D
:100CF0000068012807D94FF0805005490860BFF30C
:100D00004F8FBFF36F8F00F045FDEEE7D444002016
:100D100004ED00E02DE9F04106460D4617469846E1
:100D2000069C0DB9246000E02760E663256401217C
:100D3000204601F001FABDE8F0812DE9FF5F804611
:100D40000E469146DDE90E7A109CA9F10100216B57
:100D500001EB800B2BF0070B002507E0715D04F120
:100D600034004155705D00B902E06D1C102DF5D3C3
:100D700000BF002143200155052F00D30427E7625F
:100D8000201D00F0F6FD04F1180000F0F2FD2461D2
:100D9000C7F10500A06164620020606484F8480027
:100DA00041465846039A00F017F92060BAF1000F47
:100DB00001D0CAF80040BDE8FF9F000010B5002434
:100DC00007E004EB84010F4A02EB810000F0C4FD50
:100DD000641C052CF5D30C4800F0BEFD0B4800F058
:100DE000BBFD0B4800F0B8FD0A4800F0B5FD0A480D
:100DF00000F0B2FD04480949086004480849086049
:100E000010BD0000D4440020384500204C4500208F
:100E10006045002074450020884500209000002097
:100E20009400002070B5054600F0CCFDA86B08B911
:100E3000012400E0002400F0D7FD204670BD70B50D
:100E4000054600F0BFFDA86BE96B884201D1012483
:100E500000E0002400F0C8FD204670BD0A49096882
:100E6000096809B9012100E0002121B14FF0FF31EB
:100E7000064A116006E004490968C968C868034A5F
:100E8000416811607047000090000020BC00002005
:100E900000BFBF2080F31188BFF34F8FBFF36F8F68
:100EA00000BF00BFFEE7000010B5014600200A4663
:100EB0000B4C5369A34201D1012300E0002373B11D
:100EC000084C936AA34201D1012300E0002333B907
:100ED000936A0BB9012300E0002303B1012010BD88
:100EE000884500206045002070B5044600F06AFD8A
:100EF00094F9455010E0606A08B9012000E0002034
:100F000038B904F1240001F011FB18B100F0B2FE71
:100F100000E003E0681E45B2002DECDC00BFFF20BE
:100F200084F8450000F060FD00F04CFD94F9445059
:100F300010E0206908B9012000E0002048B904F160
:100F4000100001F0F3FA08B100F094FE681E45B2FB
:100F500000E001E0002DECDC00BFFF2084F844003D
:100F600000F042FD70BD000070B50446002504F09D
:100F7000070020B104F00700C0F10800044400F0AD
:100F800067FF1248006820B9114820F007000F4998
:100F9000086010480068204444F2F831884210D2BA
:100FA0000C48006820440B490968884209D9074861
:100FB0000068084909684518064800682044054942
:100FC000086001F0F3FA284670BD0000840000209C
:100FD000D900002080000020001F4FF080730360C4
:100FE000001F21F001030360001F034B036014384E
:100FF0000260203870470000910E00082C480068FD
:1010000040F480302A49086000BF2948006800F495
:1010100000300028F9D01320264908602448406891
:10102000234948600846406840F4A060486008468C
:10103000406840F4205048600846406820F4701032
:1010400048600846406820F48030486008464068A0
:1010500020F4003048600846406840F48030486022
:101060000846406848600846406840F4E010486020
:101070000846006840F08070086000BF0C480068B7
:1010800000F000700028F9D00948406820F0030003
:10109000074948600846406840F00200486000BFC9
:1010A0000348406800F00C000828F9D170470000A0
:1010B000001002400020024070B504460D46052D88
:1010C0007ED2DFE805F0031C354E6700C4EBC40197
:1010D0003F4A1144C8780021FFF704FAC4EBC40169
:1010E0003B4A114408790021FFF7FCF9C4EBC40125
:1010F000374A114448790021FFF7F4F966E0C4EB60
:10110000C401334A1144C8780121FFF7EBF9C4EB5D
:10111000C4012F4A114408790021FFF7E3F9C4EB19
:10112000C4012B4A114448790021FFF7DBF94DE057
:10113000C4EBC401264A1144C8780021FFF7D2F954
:10114000C4EBC401224A114408790121FFF7CAF90E
:10115000C4EBC4011E4A114448790021FFF7C2F9CB
:1011600034E0C4EBC4011A4A1144C8780121FFF7E6
:10117000B9F9C4EBC401164A114408790121FFF7FB
:10118000B1F9C4EBC401124A114448790021FFF7B8
:10119000A9F91BE0C4EBC4010D4A1144C878012130
:1011A000FFF7A0F9C4EBC401094A114408790121F1
:1011B000FFF798F9C4EBC401054A1144487900E0EF
:1011C00003E00121FFF78EF900E000BF00BF70BD12
:1011D000700000203F48806941F2050108433D4905
:1011E00088613D48006840F440303B49086008464B
:1011F000006820F440200860102037491031086052
:101200003548006840F440103349086008460068DB
:1012100020F4400008600846006840F400000860C0
:101220000846006820F0407008600846006820F01A
:10123000406008600846006840F00060086026488A
:101240001030006840F04000234910310860224807
:10125000006840F04050204908600846006820F0CF
:10126000404008600846006840F0004008600020E8
:101270001A49088088800846008840F038000880B5
:101280000846008840F0020008800846008840F0C8
:10129000010008800846008820F4006008800846A5
:1012A000008820F0800008800846008840F4007024
:1012B00008800846008840F480700880084600884E
:1012C00040F0040008800846008840F04000088094
:1012D000704700000010024000080140003001404B
:1012E0002DE9F84F05460C4690469946DDE90A6B14
:1012F0000027C5EBC501584A114488780021FFF743
:10130000F1F859462846FFF7D7FEBA469EE000237B
:101310001A461946304600F071FE00287ED03DB9CD
:101320000123002269464D48006800F067FE12E084
:10133000012D07D10123002269464948006800F0C9
:101340005DFE08E0022D06D10123002269464548D2
:10135000006800F053FE9DF80000A04204D1772100
:10136000414800F0EBF968E09DF80000A04264D02D
:101370003E48006886421AD170213B4800F0DEF9F1
:1013800000231A4669463548006800F037FE00948D
:1013900000235A1E69463148006800F00DFF0746D9
:1013A000012F39D032A1304800F0D0F934E038486C
:1013B000006886421AD171212B4800F0BFF9002342
:1013C0001A4669462648006800F018FE009400237B
:1013D0005A1E69462248006800F0EEFE0746012FBB
:1013E0001AD023A1204800F0B1F915E0294800687F
:1013F000864211D172211C4800F0A0F900235A1E28
:1014000069461848006800F0D7FE0746012F03D050
:1014100017A1154800F09AF91BE0FFE700231A46D0
:101420001946304600F0EAFD38B99DF80000A042A8
:1014300003D078210C4800F081F92146284600F0BD
:101440002BF8484600F0FCFB0AF1010AC245FFF404
:101450005EAF00BFBDE8F88F700000200C000020D8
:101460001000002014000020003801401800002067
:10147000436F756C64206E6F742073656E642074A6
:101480006F207468652071756575652E0D0A000002
:101490001C0000202000002070B504460D460DB150
:1014A000012200E000221146C4EBC4020E4B985CFE
:1014B000FFF718F8C4EBC4010B4A11444878002127
:1014C000FFF710F84FF0805008490860BFF34F8FC6
:1014D000BFF36F8FC4EBC401034A11444878012164
:1014E000FFF700F870BD00007000002004ED00E080
:1014F0001FB51EE000235A1E02A90E48006800F026
:101500007DFDB0B19DF80D000B490968CDE90010D3
:101510009DF80C30BDF80A209DF809109DF80800D0
:10152000FFF7DEFE00231A4619460448006800F063
:1015300043FEDFE700000020180000202400002008
:101540001FB51EE000235A1E02A90E48006800F0D5
:1015500055FDB0B19DF80D000B490968CDE90010AB
:101560009DF80C30BDF80A209DF809109DF8080080
:10157000FFF7B6FE00231A4619460448006800F03B
:101580001BFEDFE7040000201C00002028000020D4
:101590001FB51EE000235A1E02A90E48006800F085
:1015A0002DFDB0B19DF80D000B490968CDE9001083
:1015B0009DF80C30BDF80A209DF809109DF8080030
:1015C000FFF78EFE00231A4619460448006800F013
:1015D000F3FDDFE708000020200000202C000020A1
:1015E00010B50F48C06940F001000D49C86148F6C8
:1015F0009F4089040885092088850020888401206F
:1016000088828007808940F001008881012008805D
:1016100002211C20FEF796FF1C20FEF788FF10BD5C
:101620000010024010B51448C06940F00200124991
:10163000C86148F69F40114908803120091D088083
:1016400000200E49091F088001200C491439088028
:101650000A481C38008840F0010008491C390880FD
:10166000012006492839088001211D20FEF76AFF64
:101670001D20FEF75CFF10BD001002402804004052
:1016800010B52B48806940F480402949886108469C
:10169000806940F0040088610846806940F00100DC
:1016A00088612448006820F0C0002249086008468C
:1016B000006840F0800008600846006840F01000B4
:1016C00008600846006820F440600860084600682A
:1016D00040F4806008600846006820F4807008606C
:1016E0009C2015490880081D008840F40050091D01
:1016F00008800846008840F00800088008460088F6
:1017000040F0040008800846008840F0200008806F
:101710000846008820F480500880081D008820F4C6
:101720004050091D08802520FEF7F6FE10BD000080
:1017300000100240040801400838014000BF028840
:1017400002F08002002AFAD08180704730B5054649
:101750000B46002406E02046621CD4B2195C2846E1
:10176000FFF7ECFF185D0028F5D130BD01460A698E
:10177000D1E901309860D1E901035860506888428E
:1017800001D188685060002008611068401E106018
:10179000106870472DE9F0411B480068401C1A4949
:1017A000086000F02FFE19490968401AB0F57A7FE9
:1017B00027D900F027FE154908601348006814492E
:1017C0000968884203DD1048006811490860104824
:1017D000006801F083F806460B48006801F07EF8C7
:1017E0000746314600F0B8FF05460A4901F08EF879
:1017F0000446084901F056F90749086000200249EB
:101800000860BDE8F08100005C0000205800002066
:10181000600000200000C8424800002013E00A4891
:10182000006940F40050084908614FF4FA7000F074
:1018300007FA0548006940F00050034908614FF479
:10184000FA7000F0FDF9EAE70010014011E00948E4
:10185000006940F4005007490861642000F0F0F985
:101860000448006940F0005002490861642000F01B
:10187000E7F9ECE700100140F8B506460025002422
:101880001C20012181402A4A430942F8231000BF4D
:101890002848006800F07EFA2748006800F07AFACD
:1018A0004FF4FA6000F0CCF9022000900023C21E31
:1018B00069462248006800F07FFC00235A1E6946F2
:1018C0001F48006800F078FC00235A1E69461D4836
:1018D000006800F071FC00F0F3FA054600F014FB1C
:1018E00004461948844204D125211848FFF726FFF1
:1018F00003E026211548FFF721FF1C20012181402C
:101900004209920002F1E022C2F8001100BF09482A
:10191000006800F0C5F90848006800F0C1F90C48FB
:10192000006800F037FA0B48006800F033FAF8BDA1
:1019300080E100E0380000203C0000200C00002086
:1019400010000020140000201540EF000038014076
:10195000400000203400002000F1080141604FF0F9
:10196000FF31816000F10801C16001610021016067
:10197000704700210161704710B502460B685C1C7E
:101980000CB9106907E002F1080000E04068446803
:1019900024689C42FAD944684C604C68A160886015
:1019A00041600A611468641C146010BD42684A609A
:1019B00093688B60936859609160086103685B1C51
:1019C0000360704700BFBF2080F31188BFF34F8FC3
:1019D000BFF36F8F00BF03480068401C01490860D7
:1019E000704700008800002006480068401E054936
:1019F00008600846006820B9002080F3118800BF05
:101A000000BF7047880000207047000003484FF077
:101A1000E021486107200861704700003F1901007C
:101A20002DE9FF41074600240025002602200390EF
:101A3000029003220021012000F0C4FA70490860DE
:101A4000DAE000235A1E19466D48006800F0D6FA05
:101A50000028F5D06B480078F82875D1694840789F
:101A6000012803D100208DF8000010E0654840787F
:101A7000022803D101208DF8000008E06148407879
:101A8000032803D102208DF8000000E0B5E05D4896
:101A90008078522803D100208DF8010008E05948D1
:101AA0008078552803D101208DF8010000E0A4E0E2
:101AB0005448C078462803D100208DF8050020E066
:101AC0005048C078482803D101208DF8050018E05F
:101AD0004C48C078512803D102208DF8050010E051
:101AE0004848C078452803D103208DF8050008E058
:101AF0004448C078532803D104208DF8050000E045
:101B00007BE0404840793F49097940EA0120ADF83F
:101B100002003C48C0793B49897940EA0120C0B2C3
:101B20008DF804003748007AE02839D19DF800008C
:101B300080B900235A1E69463348006800F03CFB18
:101B40000446012C2DD000E041E030A13748FFF7DA
:101B5000FDFD26E09DF8000001280ED10023821E25
:101B600069463348006800F027FB0546012D18D070
:101B700026A12E48FFF7EAFD13E09DF80000022899
:101B80000FD10023C21E69462A48006800F014FBEA
:101B90000646012E05D01DA12448FFF7D7FD00E021
:101BA0002BE000202449087009E000201549224A52
:101BB0001278885420480078401C1F4908701E483D
:101BC00000780828F1DB00201C49087014E0002090
:101BD0001949087009E000200A49174A1278885408
:101BE00015480078401C14490870134800780828EC
:101BF000F1DB00201149087023E700BFBDE8FF8139
:101C000030000020C800002000000020436F756CE9
:101C100064206E6F742073656E6420746F20746826
:101C2000652071756575652E0D0A0000003801404C
:101C3000040000200800002045000020440000208F
:101C400070B50446002544B100F002F90021204699
:101C5000FEF71EFF00F0AAFC05463DB94FF080508C
:101C600003490860BFF34F8FBFF36F8F70BD000053
:101C700004ED00E00120014908607047B000002039
:101C800070B505460C460548016818312846FFF72F
:101C900073FE01212046FEF7FBFE70BD8C00002084
:101CA00070B505462C4674B31748006884422AD0A4
:101CB000FFF788FE2046FFF7F7F810B3201DFFF767
:101CC00055FD94F82C1001208840104909680843FC
:101CD0000E490860E16A01EB81010D4A02EB8100C7
:101CE000211DFFF763FE0849E06A0968C96A884256
:101CF00007D34FF0805007490860BFF34F8FBFF301
:101D00006F8FFFF771FE70BD8C000020A4000020D3
:101D1000D444002004ED00E0034909680160034950
:101D20000968416070470000B4000020A000002056
:101D30001CB5114800210B468022CDE900100FA1EF
:101D4000104800F02FFB0446012C14D100BFBF2027
:101D500080F31188BFF34F8FBFF36F8F00BF4FF039
:101D6000FF3009490860012008490860002008493F
:101D7000086000F00DF91CBDC000002049444C452E
:101D800000000000E90C0008BC000020A8000020B2
:101D9000A000002070B50546FFF714FE15B92548D0
:101DA000006800E028460446201DFFF7DFFC78B9F4
:101DB000E06A00EB8000204951F8200040B994F817
:101DC0002C10012088401D49096881431B4801608F
:101DD000A06A18B104F11800FFF7C8FC211D1848CB
:101DE000FFF7E4FDFFF700FE1648006828B1FFF793
:101DF000E9FDFFF733F8FFF7F7FD0E48006884426E
:101E000017D11048006840B14FF080500E4908606B
:101E1000BFF34F8FBFF36F8F0BE0094800680B498A
:101E20000968884203D100200249086001E000F0FF
:101E300017F870BD8C000020D4440020A4000020BE
:101E400088450020A800002004ED00E09C00002050
:101E500002480068401C014908607047C400002027
:101E60001248006818B10120114908601DE00020E7
:101E70000F4908600F480068B0FA80F0C0F11F01F8
:101E800001EB81020C4B03EB820042685268426016
:101E900000F108024368934202D1426852684260EE
:101EA0004268D268054B1A6000BF7047C40000202A
:101EB000B0000020A4000020D44400208C000020AA
:101EC00000B500220F48006840F010000D4908607E
:101ED000AB2000F045F8FF2000F042F8FF2000F0B2
:101EE0003FF8FF2000F03CF8FF2000F039F80246F0
:101EF0000448001F006840F010000249091F0860F4
:101F0000104600BD1408014030B500220023002413
:101F100000251248006840F01000104908609F201A
:101F200000F01EF8FF2000F01BF80346FF2000F031
:101F300017F80446FF2000F013F805460748001F75
:101F4000006840F010000549091F0860180440EAC5
:101F5000042040EA0502104630BD0000140801408C
:101F6000014600BF0948008900F002000028F9D0AE
:101F70000648818100BF0548008900F00100002863
:101F8000F9D002488089C0B270470000003001409B
:101F900010B50A48006840F47F0008490860084608
:101FA000006840F07F400860FFF730FD00200449E2
:101FB0000860FEF7FBF8002010BD000020ED00E0F7
:101FC000880000202DE9F84307460D4690460DB9DC
:101FD000002601E007FB05F606F14800FEF7C4FF06
:101FE000044644B104F1480943464A462946384666
:101FF0000094FEF78FFE2046BDE8F8832DE9FF47E9
:1020000082B0054689461E464FF0000A2C4600BFA6
:10201000FFF7D8FCD4F83880B8F1000F36D0E76865
:1020200049462046FEF70CFEB6B9A8F10100A063B0
:10203000206908B9012000E0002008BB04F110006D
:1020400000F074FAE0B14FF080503A490860BFF3F5
:102050004F8FBFF36F8F13E0E760606A08B901200C
:1020600000E0002060B904F1240000F05FFA38B10C
:102070004FF080502F490860BFF34F8FBFF36F8F31
:10208000FFF7B2FC012006B0BDE8F087049818B94C
:10209000FFF7AAFC0020F6E7BAF1000F04D168466A
:1020A000FFF73AFE4FF0010AFFF79EFCFFF7D0FE64
:1020B000FFF788FC94F94400401C10B9002084F814
:1020C000440094F94500401C10B9002084F84500F4
:1020D000FFF78AFC04A9684600F036F9F0B92046FB
:1020E000FEF7A0FEA0B104F124000499FFF7C8FD9B
:1020F0002046FEF7F9FE00F059FA002888D14FF08B
:1021000080500C490860BFF34F8FBFF36F8F7FE79C
:102110002046FEF7E9FE00F049FA79E72046FEF78F
:10212000E3FE00F043FA2046FEF77CFE0028EED0E6
:102130000020A8E704ED00E070B505460E462C46E9
:10214000FFF740FCD4E90F12206801FB0200606039
:102150000020A0632068A060E06B401E226C216814
:1021600000FB0210E060FF2084F8440084F8450082
:102170009EB9206908B9012000E00020A8B904F147
:10218000100000F0D3F980B14FF080500949086089
:10219000BFF34F8FBFF36F8F07E004F11000FFF71D
:1021A000DBFB04F12400FFF7D7FBFFF71DFC012048
:1021B00070BD000004ED00E02DE9FF4383B0074649
:1021C00088461D464FF000093C4600BFFFF7FAFB6A
:1021D000A06BE16B884201D3022D28D12A464146EB
:1021E0002046FEF742FD0646606A08B9012000E07D
:1021F000002068B904F1240000F098F988B14FF08C
:10220000805032490860BFF34F8FBFF36F8F08E0F3
:102210003EB14FF080502D490860BFF34F8FBFF3A0
:102220006F8FFFF7E1FB012007B0BDE8F083059851
:1022300018B9FFF7D9FB0020F6E7B9F1000F04D178
:1022400001A8FFF769FD4FF00109FFF7CDFBFFF78C
:10225000FFFDFFF7B7FB94F94400401C10B90020C4
:1022600084F8440094F94500401C10B9002084F81B
:102270004500FFF7B9FB05A901A800F065F8F0B922
:102280002046FEF7DCFDA0B104F110000599FFF730
:10229000F7FC2046FEF728FE00F088F9002895D1CB
:1022A0004FF0805009490860BFF34F8FBFF36F8F25
:1022B0008CE72046FEF718FE00F078F986E7204606
:1022C000FEF712FE00F072F90020ADE704ED00E029
:1022D0002DE9F04705460E462C4600BFBF21EFF31F
:1022E000118081F31188BFF34F8FBFF36F8F00BF51
:1022F0008046D4F83890E06B48451DD994F945A044
:1023000009F10100A0630AF1010070B9606A08B91F
:10231000012000E0002068B904F1240000F006F973
:1023200040B13EB10120306004E00AF1010040B24A
:1023300084F84500012700E0002700BF88F31188DA
:1023400000BF3846BDE8F08770B504460D46FFF77C
:1023500039FB124802682868401C08B9002619E0B9
:102360000F4920680968884204D06068904201D80B
:1023700001260FE06068101A2968884209D228688F
:102380006168511A401A28602046FFF7C5FC0026F4
:1023900000E00126FFF728FB304670BDA0000020BA
:1023A000B40000202DE9FF4F85B0804689461746CE
:1023B000DDE912ABB800FEF7D7FD064656B14C205A
:1023C000FEF7D2FD04460CB1266304E03046FFF769
:1023D0001BFB00E000247CB10020CDE900ABCDE97F
:1023E00002403A4649464046089BFEF7A6FC204676
:1023F000FEF79AFB012501E04FF0FF35284609B0B2
:10240000BDE8F08F0149086870470000A000002077
:102410002DE9F04100273A480068002863D1394887
:102420000068451C374805608DB93748D0F80080F2
:1024300036480068344908603448C0F800803448A1
:102440000068401C32490860FEF708FD00BF3148B3
:10245000006885423BD300BF2B480068006808B97C
:10246000012000E0002020B14FF0FF302949086032
:102470002CE025480068C068C4686668B54202D28E
:102480002448066022E0201DFFF770F9A06A18B109
:1024900004F11800FFF76AF994F82C100120884025
:1024A0001D49096808431C490860E16A01EB810184
:1024B0001A4A02EB8100211DFFF778FA1849E06AF9
:1024C0000968C96A8842C7D30127C5E700BF144815
:1024D0000068C06A00EB8000104951F82000012814
:1024E00000D9012704E00F480068401C0D4908602E
:1024F0000D48006800B101273846BDE8F0810000B2
:10250000C4000020A00000209000002094000020C3
:10251000B4000020BC000020A4000020D44400200F
:102520008C000020AC000020B000002070B50646F2
:10253000F068C46804F11800FFF718F9154800683E
:10254000A8B9201DFFF712F994F82C10012088403B
:1025500011490968084310490860E16A01EB8101EB
:102560000E4A02EB8100211DFFF720FA04E004F17E
:1025700018010B48FFF71AFA0A49E06A0968C96AA4
:10258000884204D9012501200749086000E00025A0
:10259000284670BDC4000020A4000020D4440020C0
:1025A000604500208C000020B000002070B50024A1
:1025B0000026FFF707FA2E480068401E2C490860E5
:1025C0000846006800284FD12A48006800284BD0F0
:1025D00024E02948C068C46804F11800FFF7C6F871
:1025E000201DFFF7C3F894F82C10012088402349E0
:1025F0000968084321490860E16A01EB8101204A2A
:1026000002EB8100211DFFF7D1F91E49E06A09683C
:10261000C96A884202D301201B4908601648006835
:1026200008B9012000E000200028D2D00CB1FEF74C
:1026300015FC1648056865B100BFFFF7E9FE10B14B
:102640000120114908606D1E002DF6D100200F49B0
:1026500008600D48006838B1012630070C49086051
:10266000BFF34F8FBFF36F8FFFF7BEF9304670BDDA
:10267000C40000209C00002060450020A400002031
:10268000D44400208C000020B0000020AC000020CA
:1026900004ED00E090EA010F48BF81F0004100F135
:1026A0001282421A3CBF801A89184FEAD0524FF06A
:1026B0007F4C1CEA410FA2EBD15318BF9CEA026F7A
:1026C00000F03B804FF0004C4CEA00204CEA012126
:1026D00021FA03FC10EB0C0C1ED202F1FF325FEA70
:1026E0001C2040EBC25038BF70471CF07F0F4FEAF0
:1026F000400C18BFBCF17F4F38BF7047C3F12003B7
:10270000994008BF20F00100BCF17F4F38BF7047EF
:10271000A0F1C04000F0C1B94FEA3C00000A40EB14
:10272000C25028BF1CF0FF0F4FEA400CE6D018BF84
:10273000BCF17F4F38BF7047EAE79CEA026F05D0D3
:1027400010EA5C0F08BF00F00040704710B500F0C1
:102750005EF900BF64FBBE3E4FF47F0C1CEAD01252
:102760001EBF1CEAD11392EA0C0F93EA0C0F00F083
:10277000858090EA010F48BF42F4807240F4000C5B
:1027800041F400002CF07F4120F07F4000B58142F1
:10279000A2EB03020FF2081CACEB504EC0F100009C
:1027A0009EF800E04FEA4E0E00FB0EFC38BF4900D9
:1027B0004FEA2C1C02F5FA020CFB0EF34FEACE1E78
:1027C0004FEA112C4FEAC1210EEB635E42EB22422D
:1027D0000EFB0CFC4FEA1C5300FB03114FEA112CBB
:1027E0004FEA01310EFB0CFC4FEADC4C00FB0C11F4
:1027F000C14228BF09184CEB03335DF804EB10EB22
:10280000410143EBC250B2F57C0F38BF704729D568
:1028100012F0F00F1CBF00F1C04000F00040704704
:10282000008182838485868788898B8C8D8E8F91A9
:102830009293959697999A9C9D9FA0A2A3A5A7A8CD
:10284000AAACAEB0B2B3B5B7B9BCBEC0C2C5C7C9F9
:10285000CCCED1D4D7D9DCDFE2E6E9ECF0F3F7FA5D
:10286000FE0000004FEA400C0CF1807CBCF17E4F72
:1028700028BF7047B0F1C04000F00FB990EA010FD7
:102880000CEAD11348BF42F48072624538BF6345F9
:1028900007D213F47F0F16D080EA010000F0004049
:1028A000704710B500F0B3F8097EFC3E00F005B8A3
:1028B00080EA010000F00040704780EA010000F06B
:1028C000004000F0EAB812F47F0F04BF02487047DE
:1028D00080EA010000F0E1B80000C07F10F0004184
:1028E00048BF4042B0FA80F310FA03F2C3F19D03EF
:1028F0000BD051EAC35101EB1220530638BF704789
:1029000000F1010008BF20F0010070474FF47F0C78
:102910001CEAD0121EBF1CEAD11392EA0C0F93EAF4
:102920000C0F00F0478090EA010F48BF42F480721C
:102930004FF0004C4CEA00204CEA012102EB03026C
:10294000A0FB0113A2F50002002918BF43F0010308
:102950005B0028BF4FEA330342EB22425FEA132CAD
:102960004CEBC2502EBFBCEB436FB2F57C0F7047EF
:102970004FEA036CBCF1004F08BF20F00100B2F534
:102980007C0F38BF70470BD582F0FF0212F5803FF5
:10299000C8BF704700F1C040D8BF00F0004070478A
:1029A00000F5000C5FEA4C0C48BF7047B0F1C04026
:1029B00000F073B890EA010F0CEAD11348BF42F45B
:1029C0008072624538BF634504D280EA010000F09E
:1029D0000040704710B500F01AF800BF8900013EB2
:1029E00000F007B800F009B85FEA410C5FEA1C6C20
:1029F00008D080EA010000F050B85FEA400C5FEABE
:102A00001C6CF6D14FF00040A0F5800070470EF12D
:102A1000020E2EF0030E5EF8044B244204D44FEA5B
:102A20004102B2F17F4F11D84FEA4003B3F17F4F1B
:102A30000CD80ED14FEAD07CB2F17F4F0CEB4C0C8E
:102A40000CF1020C08BF4CEBD17C04E04FF0080CF9
:102A500001E04FEAD17C0CEB4C0324FA03F404F0C0
:102A60000704B4F1040C06D20EEB840CBDE8104050
:102A70004CF0010C6047DFE80CF0070802024FF051
:102A80000040A0F5800010BD0846420018BFD2F1FA
:102A9000807288BF00F0004010BDFF2141EAD05095
:102AA000C005704780F0004090EA010F7FF5F9AD56
:102AB00081F0004100F007B890EA010F48BF81F0B3
:102AC00000413FF5EEAD421A04D882F00042A0EB7F
:102AD000020011444FEAD0524FF07F4C1CEA410FE4
:102AE000A2EBD15318BF9CEA026F4AD04FF0004CC2
:102AF0004CEA00204CEA012121FA03FCB0EB0C0C5B
:102B00000FD412F0FE0F36D05FEA4C001DD5001234
:102B100040EBC25038BF70471CF03F0F18BF7047E2
:102B20000BE0A2F101025FEA1C2040EBC25038BF6B
:102B300070471CF07F0F18BF7047C3F12003994006
:102B400014BF401E20F00100704780084FEA122396
:102B500008BF7047B0FA80FCA2EB0C02CCF1280C45
:102B600060FA0CF093EA122F04BF00EBC2507047DA
:102B70004FEAC3707047130A5FEADC1008BF704762
:102B8000F6E79CEA026F04D010EA5C0F08BF002051
:102B9000704710B5FFF73BFF40DFF63E81F0004085
:102BA00070470000000C01400C000101000C0140C6
:102BB0000E000101000C01400D000101000C01405C
:102BC00001000101000C01400A000101000C01405C
:102BD0000B000101000C0140080008000008014042
:102BE000010001010008014002000101000801404C
:102BF000000001010008014003000101000C014038
:102C000006000101000C014007000101000C014019
:102C100009000800342C000800000020C800000053
:102C200028010008FC2C0008C8000020384B0000D8
:102C30004401000800000000000000000000000047
:102C40000000000000000000000000000000000084
:102C50000000000000000000000000000000000074
:102C60000000000000000000000000000000000064
:102C70000000000000000000000000000000000054
:102C80000000000000000000000000000000000044
:102C90000000000000000000000000000000000034
:102CA00000000000000201030405060709080A0BE2
:102CB0000C0D00000000000000000000AAAAAAAA53
:102CC0000000000000000000000000000000000004
:102CD00000000000000000000000000000000000F4
:102CE00000000000000000000000000000000000E4
:0C2CF000000000000000000000000000D8
:0400000508000221CC
:00000001FF
